:020000040800F2
:100000000000022009360008691800086B18000873
:100010006D1800086F180008711800080000000033
:10002000000000000000000000000000731800083D
:1000300075180008000000007718000879180008FB
:100040005936000859360008593600085936000854
:100050005936000859360008593600085936000844
:100060005936000859360008593600085936000834
:10007000593600085936000859360008811800081A
:1000800091180008593600085936000859360008FA
:100090005936000859360008593600085936000804
:1000A000A1180008B1180008C1180008D1180008EC
:1000B000E1180008F1180008011900085936000875
:1000C00059360008593600085936000859360008D4
:1000D0005936000859360008111900085936000829
:1000E00059360008593600085936000859360008B4
:1000F00021190008593600085936000859360008F9
:100100005936000859360008593600085936000893
:1001100031190008593600085936000859360008C8
:100120005936000859360008593600085936000873
:100130005936000859360008593600085936000863
:100140005936000859360008593600085936000853
:100150005936000859360008593600085936000843
:100160005936000859360008593600085936000833
:1001700059360008593600085936000800000000BA
:08018000593600085936000849
:1001900010B5054C237833B9044B13B10448AFF3C1
:1001A00000800123237010BDE80100200000000042
:1001B0004C6D000808B5034B1BB103490348AFF36E
:1001C000008008BD00000000EC0100204C6D00081C
:1001D000034613F8012B002AFBD1181A0138704787
:1001E00001F0FF01102A2BDB10F0070F08D010F8E8
:1001F000013B013A8B422DD010F0070F42B3F6D1EC
:10020000F0B441EA012141EA014122F007047FF004
:1002100000070023F0E80256083C85EA010586EA5B
:10022000010685FA47F5A3FA87F586FA47F6A5FA97
:1002300087F68EB9EED1F0BC01F0FF0102F00702A3
:1002400032B110F8013B013A83EA010313B1F8D14E
:100250000020704701387047002D06BF354603382F
:10026000073815F0010F07D1013015F4807F02BF68
:10027000013015F4C03F0130F0BC0138704700BFB9
:1002800081F0004102E000BF83F0004330B54FEA47
:1002900041044FEA430594EA050F08BF90EA020FB4
:1002A0001FBF54EA000C55EA020C7FEA645C7FEA47
:1002B000655C00F0E2804FEA5454D4EB5555B8BF6A
:1002C0006D420CDD2C4480EA020281EA030382EADB
:1002D000000083EA010180EA020281EA0303362D6D
:1002E00088BF30BD11F0004F4FEA01314FF4801C40
:1002F0004CEA113102D0404261EB410113F0004F52
:100300004FEA03334CEA133302D0524263EB430308
:1003100094EA050F00F0A780A4F10104D5F1200EA6
:100320000DDB02FA0EFC22FA05F2801841F1000101
:1003300003FA0EF2801843FA05F359410EE0A5F1D5
:1003400020050EF1200E012A03FA0EFC28BF4CF006
:10035000020C43FA05F3C01851EBE37101F00045BC
:1003600007D54FF0000EDCF1000C7EEB00006EEBC9
:100370000101B1F5801F1BD3B1F5001F0CD3490853
:100380005FEA30004FEA3C0C04F101044FEA4452AA
:1003900012F5800F80F09A80BCF1004F08BF5FEA31
:1003A000500C50F1000041EB045141EA050130BD11
:1003B0005FEA4C0C404141EB0101013C28BFB1F523
:1003C000801FE9D291F0000F04BF01460020B1FA6E
:1003D00081F308BF2033A3F10B03B3F120020CDA41
:1003E0000C3208DD02F1140CC2F10C0201FA0CF01F
:1003F00021FA02F10CE002F11402D8BFC2F1200C84
:1004000001FA02F120FA0CFCDCBF41EA0C01904039
:10041000E41AA2BF01EB0451294330BD6FEA040482
:100420001F3C1CDA0C340EDC04F11404C4F120026D
:1004300020FA04F001FA02F340EA030021FA04F37F
:1004400045EA030130BDC4F10C04C4F1200220FAD6
:1004500002F001FA04F340EA0300294630BD21FA14
:1004600004F0294630BD94F0000F83F4801306BFDA
:1004700081F480110134013D4EE77FEA645C18BFCE
:100480007FEA655C29D094EA050F08BF90EA020F65
:1004900005D054EA000C04BF1946104630BD91EA5D
:1004A000030F1EBF0021002030BD5FEA545C05D160
:1004B0004000494128BF41F0004130BD14F580049F
:1004C0003CBF01F5801130BD01F0004545F0FE4113
:1004D00041F470014FF0000030BD7FEA645C1ABF48
:1004E000194610467FEA655C1CBF0B46024650EA7F
:1004F000013406BF52EA033591EA030F41F40021AB
:1005000030BD00BF90F0000F04BF0021704730B530
:100510004FF4806404F132044FF000054FF0000105
:1005200050E700BF90F0000F04BF0021704730B5C6
:100530004FF4806404F1320410F0004548BF40429B
:100540004FF000013EE700BF42004FEAE2014FEAF0
:1005500031014FEA02701FBF12F07F4393F07F4FCB
:1005600081F06051704732F07F4208BF704793F0CE
:100570007F4F04BF41F40021704730B54FF46074E1
:1005800001F0004521F000411CE700BF50EA0102E4
:1005900008BF704730B54FF000050AE050EA01028D
:1005A00008BF704730B511F0004502D5404261EBFD
:1005B00041014FF4806404F132045FEA915C3FF43E
:1005C000D8AE4FF003025FEADC0C18BF03325FEADB
:1005D000DC0C18BF033202EBDC02C2F1200300FA8C
:1005E00003FC20FA02F001FA03FE40EA0E0021FAB1
:1005F00002F11444BDE600BF70B54FF0FF0C4CF49F
:10060000E06C1CEA11541DBF1CEA135594EA0C0F50
:1006100095EA0C0F00F0DEF82C4481EA030621EA8B
:100620004C5123EA4C5350EA013518BF52EA0335C6
:1006300041F4801143F4801338D0A0FB02CE4FF078
:100640000005E1FB02E506F00042E0FB03E54FF0A8
:100650000006E1FB03569CF0000F18BF4EF0010EA0
:10066000A4F1FF04B6F5007F64F5407404D25FEA9C
:100670004E0E6D4146EB060642EAC62141EA55514F
:100680004FEAC52040EA5E504FEACE2EB4F1FD0C91
:1006900088BFBCF5E06F1ED8BEF1004F08BF5FEA0F
:1006A000500E50F1000041EB045170BD06F00046C1
:1006B00046EA010140EA020081EA0301B4EB5C046E
:1006C000C2BFD4EB0C0541EA045170BD41F4801166
:1006D0004FF0000E013C00F3AB8014F1360FDEBF8B
:1006E000002001F0004170BDC4F10004203C35DA67
:1006F0000C341BDC04F11404C4F1200500FA05F3EA
:1007000020FA04F001FA05F240EA020001F000428A
:1007100021F0004110EBD37021FA04F642EB060100
:100720005EEA430E08BF20EAD37070BDC4F10C042A
:10073000C4F1200500FA04F320FA05F001FA04F2EE
:1007400040EA020001F0004110EBD37041F10001DA
:100750005EEA430E08BF20EAD37070BDC4F12005E5
:1007600000FA05F24EEA020E20FA04F301FA05F24D
:1007700043EA020321FA04F001F0004121FA04F2F5
:1007800020EA020000EBD3705EEA430E08BF20EAC5
:10079000D37070BD94F0000F0FD101F000464000FF
:1007A00041EB010111F4801F08BF013CF7D041EA81
:1007B000060195F0000F18BF704703F00046520085
:1007C00043EB030313F4801F08BF013DF7D043EA56
:1007D0000603704794EA0C0F0CEA135518BF95EA0C
:1007E0000C0F0CD050EA410618BF52EA4306D1D193
:1007F00081EA030101F000414FF0000070BD50EAB2
:10080000410606BF1046194652EA430619D094EA3B
:100810000C0F02D150EA013613D195EA0C0F05D125
:1008200052EA03361CBF104619460AD181EA030179
:1008300001F0004141F0FE4141F470014FF0000031
:1008400070BD41F0FE4141F4780170BD70B54FF0CC
:10085000FF0C4CF4E06C1CEA11541DBF1CEA13554C
:1008600094EA0C0F95EA0C0F00F0A7F8A4EB05042E
:1008700081EA030E52EA03354FEA013100F0888025
:100880004FEA03334FF0805545EA131343EA1263EE
:100890004FEA022245EA111545EA10654FEA0026A3
:1008A0000EF000419D4208BF964244F1FD0404F55C
:1008B000407402D25B084FEA3202B61A65EB0305B8
:1008C0005B084FEA32024FF480104FF4002CB6EB75
:1008D000020E75EB030E22BFB61A754640EA0C00F5
:1008E0005B084FEA3202B6EB020E75EB030E22BF35
:1008F000B61A754640EA5C005B084FEA3202B6EB76
:10090000020E75EB030E22BFB61A754640EA9C0034
:100910005B084FEA3202B6EB020E75EB030E22BF04
:10092000B61A754640EADC0055EA060E18D04FEAC2
:10093000051545EA16754FEA06164FEAC30343EA62
:1009400052734FEAC2025FEA1C1CC0D111F4801F2F
:100950000BD141EA00014FF000004FF0004CB6E728
:1009600011F4801F04BF01430020B4F1FD0C88BFC7
:10097000BCF5E06F3FF6AFAEB5EB030C04BFB6EBD2
:10098000020C5FEA500C50F1000041EB045170BDC5
:100990000EF0004E4EEA113114EB5C04C2BFD4EBF2
:1009A0000C0541EA045170BD41F480114FF0000E76
:1009B000013C90E645EA060E8DE60CEA135594EAF2
:1009C0000C0F08BF95EA0C0F3FF43BAF94EA0C0FF5
:1009D0000AD150EA01347FF434AF95EA0C0F7FF46A
:1009E00025AF104619462CE795EA0C0F06D152EABE
:1009F00003353FF4FDAE1046194622E750EA4106A2
:100A000018BF52EA43067FF4C5AE50EA41047FF4B2
:100A10000DAF52EA43057FF4EBAE12E74FF0FF3C17
:100A200006E000BF4FF0010C02E000BF4FF0010CE8
:100A30004DF804CD4FEA410C7FEA6C5C4FEA430C61
:100A400018BF7FEA6C5C1BD001B050EA410C0CBFB0
:100A500052EA430C91EA030F02BF90EA020F002012
:100A6000704710F1000F91EA030F58BF994208BF79
:100A700090422CBFD8176FEAE37040F00100704736
:100A80004FEA410C7FEA6C5C02D150EA013C07D18D
:100A90004FEA430C7FEA6C5CD6D152EA033CD3D0D8
:100AA0005DF8040B704700BF8446104662468C46D2
:100AB0001946634600E000BF01B5FFF7B7FF002805
:100AC00048BF10F1000F01BD4DF808EDFFF7F4FF2E
:100AD0000CBF012000205DF808FB00BF4DF808EDB9
:100AE000FFF7EAFF34BF012000205DF808FB00BFDC
:100AF0004DF808EDFFF7E0FF94BF012000205DF8FE
:100B000008FB00BF4DF808EDFFF7CEFF94BF0120B2
:100B100000205DF808FB00BF4DF808EDFFF7C4FFAB
:100B200034BF012000205DF808FB00BF4FEA410CF4
:100B30007FEA6C5C02D150EA013C0AD14FEA430CD7
:100B40007FEA6C5C02D152EA033C02D14FF0000014
:100B500070474FF0010070474FEA410212F5001252
:100B600015D211D56FF47873B3EB625212D94FEAF4
:100B7000C12343F0004343EA505311F0004F23FADE
:100B800002F018BF404270474FF00000704750EA33
:100B9000013005D111F0004008BF6FF000407047F0
:100BA0004FF00000704700BF4A0011D212F500124A
:100BB00011D20DD56FF47873B3EB62520ED44FEAB5
:100BC000C12343F0004343EA505323FA02F0704735
:100BD0004FF00000704750EA013002D14FF0FF3073
:100BE00070474FF0000070474FEA4102B2F1E04316
:100BF00024BFB3F5001CDCF1FE5C0DD901F0004C04
:100C00004FEAC0024CEA5070B2F1004F40EB830053
:100C100008BF20F00100704711F0804F21D113F17F
:100C20003872BCBF01F00040704741F480114FEAB8
:100C30005252C2F11802C2F1200C10FA0CF320FA41
:100C400002F018BF40F001004FEAC1234FEAD3235E
:100C500003FA0CFC40EA0C0023FA02F34FEA4303C8
:100C6000CCE77FEA625307D150EA01331EBF4FF051
:100C7000FE4040F44000704701F0004040F0FE406C
:100C800040F40000704700BF53B94AB9002908BFBB
:100C900000281CBF4FF0FF314FF0FF3000F06EB95D
:100CA000ADF1080C6DE904CE00F006F8DDF804E0C3
:100CB000DDE9022304B070472DE9F047089D0446A2
:100CC0008C46002B40F083808A42174647D9B2FAFF
:100CD00082F242B1C2F1200024FA00F09140974024
:100CE00040EA010C94404FEA1748230CBCFBF8F68D
:100CF0001FFA87FE08FB16C143EA014306FB0EF10B
:100D0000994209D9FB1806F1FF3080F01981994208
:100D100040F21681023E3B445B1AA4B2B3FBF8F0EA
:100D200008FB103344EA034400FB0EFEA64509D934
:100D30003C1900F1FF3380F00581A64540F20281A5
:100D400002383C4440EA0640A4EB0E0400261DB1E4
:100D5000D4400023C5E900433146BDE8F08702B91D
:100D6000FFDEB2FA82F2002A50D1CB1B4FEA174EB7
:100D70001FFA87F80126B3FBFEFC210C0EFB1C3387
:100D800041EA034108FB0CF38B4207D979180CF1B7
:100D9000FF3002D28B4200F2E9808446C91AA3B226
:100DA000B1FBFEF00EFB101143EA014408FB00F812
:100DB000A04507D93C1900F1FF3302D2A04500F24B
:100DC000D9801846A4EB080440EA0C40BFE78B42E8
:100DD00009D9002D00F0B1800026C5E90001304698
:100DE0003146BDE8F087B3FA83F6002E4AD18B4234
:100DF00002D3824200F2B880841A61EB0301012021
:100E00008C46002DA8D0C5E9004CA5E7C2F120030F
:100E100020FA03F6974001FA02F04FEA174ED94044
:100E20003043030CB1FBFEF61FFA87F80EFB1611D8
:100E300043EA014306FB08F1994204FA02F409D996
:100E4000FB1806F1FF3C80F08D80994240F28A80C9
:100E5000023E3B445B1A81B2B3FBFEF00EFB103343
:100E600041EA034100FB08F38B4207D9791800F1EE
:100E7000FF3C73D28B4271D902383944CB1A40EA15
:100E8000064678E7C6F1200C03FA06F422FA0CF3C2
:100E90001C4320FA0CF701FA06F34FEA144E21FA2C
:100EA0000CF11F433B0CB1FBFEF91FFA84F80EFB5B
:100EB000191143EA014109FB08FA8A4502FA06F2D0
:100EC00000FA06F308D9611809F1FF3048D28A45C3
:100ED00046D9A9F102092144A1EB0A01BFB2B1FB35
:100EE000FEF00EFB101147EA014700FB08F8B84579
:100EF00007D9E71900F1FF312ED2B8452CD90238B5
:100F0000274440EA0940A7EB0807A0FB02894F45A8
:100F1000C64649461AD317D05DB1B3EB0E0267EB54
:100F2000010707FA0CFCF2404CEA0202F740C5E95F
:100F3000002700263146BDE8F0872E4628460BE7FD
:100F40000646E9E61846FDE64345E5D2B8EB020E53
:100F500069EB04010138DFE70846D2E760468DE718
:100F60008146B9E7664675E730464AE7ACF1020CC0
:100F7000394413E702383C4424E700BF704700BF00
:100F800002460020884220DA10B405E04FF06043AA
:100F90001C700130884215DA145C4FF06043D3F8BE
:100FA000803E13F0010FF4D04FF06043D3F8003EC1
:100FB00013F0010FEDD04FF060431B68002BE5D11B
:100FC00000BFF8E75DF8044B7047704708B5084666
:100FD0001146FFF7D5FF08BD2DE9F0478CB000247E
:100FE0000794089409940A940B9401944D4B1A6B3E
:100FF00042F010021A631A6B02F010020192019A79
:1010000002941A6B42F004021A631A6B02F0040293
:101010000292029A03941A6B42F080021A631A6BCE
:1010200002F080020392039A04941A6B42F00102C8
:101030001A631A6B02F001020492049A05941A6B67
:1010400042F002021A631A6B02F002020592059A3C
:1010500006941A6B42F008021A631B6B03F0080334
:101060000693069BDFF8C8A022462A21504601F0CD
:101070009FFF2D4E224642F20401304601F098FFB8
:1010800001220221304601F093FFDFF8A8902246AA
:101090004FF40261484601F08BFFDFF89C80224646
:1010A0004FF20501404601F083FF204F224640F2F7
:1010B0000441384601F07CFF2A2307930125089557
:1010C00009940A9407A9504601F08CFE42F20603E7
:1010D0000793089509940A9407A9304601F082FE07
:1010E0004FF402630793089509940A9407A94846A8
:1010F00001F078FE4FF205030793089509940A94CE
:1011000007A9404601F06EFE40F20443079308959C
:1011100009940A9407A9384601F064FE0CB0BDE8B2
:10112000F08700BF00380240000802400000024083
:101130000010024000040240000C024000B58DB0D7
:101140000023019302931548154A026043608360AF
:101150004FF6FF72C2600361436183610322039211
:1011600004930122059206930793089309920A9328
:101170000B9303A900F0EAFD50B9002301930293F9
:1011800001A9064800F02AFF28B90DB05DF804FB5C
:1011900002F0DCFEF1E702F0D9FEF6E730040020B1
:1011A0000000014000B58DB0002301930293154863
:1011B0004FF080420260436083604FF6FF72C2606E
:1011C0000361836103220392049301220592069333
:1011D0000793089309920A930B9303A900F0B6FDB5
:1011E00050B900230193029301A9064800F0F6FECE
:1011F00028B90DB05DF804FB02F0A8FEF1E702F09B
:10120000A5FEF6E77004002000B58DB00023019321
:1012100002931548154A0260436083604FF6FF72DF
:10122000C260036183610322039204930122059249
:1012300006930793089309920A930B9303A900F06E
:1012400085FD50B900230193029301A9064800F0DF
:10125000C5FE28B90DB05DF804FB02F077FEF1E79A
:1012600002F074FEF6E700BFF00300200004004027
:1012700000B58DB00023019302931548154A026012
:10128000436083604FF6FF72C26003618361032293
:1012900003920493012205920693079308930992FF
:1012A0000A930B9303A900F051FD50B90023019359
:1012B000029301A9064800F091FE28B90DB05DF82F
:1012C00004FB02F043FEF1E702F040FEF6E700BF48
:1012D000B00300200008004070B590B000230B93CD
:1012E0000C930D930E930F930368804A93420CD096
:1012F000B3F1804F62D07E4A934200F08C807D4AE9
:10130000934200F0C78010B070BD002401947A4B66
:101310005A6C42F001025A645A6C02F001020192C6
:10132000019A02941A6B42F010021A631A6B02F0CF
:1013300010020292029A03941A6B42F001021A639D
:101340001B6B03F001030393039B4FF400630B93A8
:1013500002260C9601250D950E940F950BA9674852
:1013600001F040FD4FF480730B930C960D950E9495
:101370000F950BA9624801F035FD22462146182041
:1013800002F050F8182002F081F822462146192078
:1013900002F048F8192002F079F8224621461A2076
:1013A00002F040F81A2002F071F8224621461B2074
:1013B00002F038F81B2002F069F8A4E70024049436
:1013C00003F50E331A6C42F001021A641A6C02F033
:1013D00001020492049A05941A6B42F001021A6306
:1013E0001B6B03F001030593059B48F202030B936B
:1013F00002230C9301230D930E940F930BA94048E5
:1014000001F0F0FC224621461C2002F00BF81C20C3
:1014100002F03CF877E700240694374B1A6C42F050
:1014200002021A641A6C02F002020692069A0794EB
:101430001A6B42F001021A631A6B02F00102079262
:10144000079A08941A6B42F002021A631B6B03F0AE
:1014500002030893089B80230B9302250C95012619
:101460000D960E940F950BA9254801F0BBFC102397
:101470000B930C950D960E940F950BA9214801F036
:10148000B1FC224621461D2001F0CCFF1D2001F0B9
:10149000FDFF38E700240994174B1A6C42F0040250
:1014A0001A641A6C02F004020992099A0A941A6BDF
:1014B00042F002021A631B6B03F002030A930A9BB9
:1014C000C0230B9302230C9301220D920E940F93D1
:1014D0000BA90C4801F086FC224621461E2001F093
:1014E000A1FF1E2001F0D2FF0DE700BF0000014068
:1014F0000004004000080040003802400010024094
:10150000000002400004024002680E4B9A4200D0E4
:10151000704700B583B00021019103F59A335A6CEE
:1015200042F002025A645B6C03F002030193019BD8
:101530000A462C2001F076FF2C2001F0A7FF03B013
:101540005DF804FB0004014000B587B0002301935F
:101550000293039304930593026803F1804303F518
:1015600082339A4202D007B05DF804FB0023009357
:101570000B4A116B41F004011163126B02F004027B
:101580000092009A4FF47072019202220292039329
:1015900004930323059301A9024801F023FCE2E729
:1015A000003802400008024030B593B00024109487
:1015B000119409940A940B940C940D940E940F9426
:1015C00020252A46214601A802F09EFE3048314BD4
:1015D00003604460856042F60313C36004614461A4
:1015E000846100F099FB00283CD1002310931193F3
:1015F00010A9274800F0F2FC002836D16023099397
:1016000000220A920B920C920D920E920F9209A94F
:101610001F4800F021FC58BB042209A91C4800F017
:101620001BFC40BB082209A9194800F015FC28BB87
:101630000C2209A9164800F00FFC10BB00230193EF
:1016400002930393049305934FF400520692089378
:1016500001A90F4800F0E5FCB0B90D48FFF774FF91
:1016600013B030BD02F072FCBFE702F06FFCC5E7BB
:1016700002F06CFCD0E702F069FCD3E702F066FCF4
:10168000D6E702F063FCD9E702F060FCE5E700BFB3
:10169000700300200004014008B50A480A4B0360AB
:1016A0004FF4E133436000238360C36003610C2285
:1016B00042618361C36100F0C3FE00B908BD02F05E
:1016C00045FCFBE710050020004C004008B50A4827
:1016D0000A4B03604FF4E133436000238360C3602F
:1016E00003610C2242618361C36100F0A9FE00B96D
:1016F00008BD02F02BFCFBE7500500200044004031
:1017000030B58BB0044600230593069307930893E6
:10171000099303684B4A934204D04B4A934249D001
:101720000BB030BD00250195484B1A6C42F40022E5
:101730001A641A6C02F400220192019A02951A6B43
:1017400042F004021A631B6B03F004030293029B32
:101750004FF4406305930223069301230793032369
:1017600008930823099305A9394801F03BFB394840
:10177000394B03604FF00063436040238360C560D2
:101780004FF48063036145618561C561056245620F
:1017900001F094FC58B92F4B23639C63002211463F
:1017A000342001F03FFE342001F070FEB8E702F073
:1017B000CDFBF0E700250395244B1A6C42F4003270
:1017C0001A641A6C02F400320392039A04951A6B9D
:1017D00042F008021A631B6B03F008030493049B96
:1017E00060230593022306930123079303230893A1
:1017F0000723099305A9194801F0F4FA1848194B71
:1018000003604FF0006343608560C5604FF4806300
:101810000361456185614FF48073C3610562456270
:1018200001F04CFC58B90E4B63639C6300221146D7
:10183000262001F0F7FD262001F028FE70E702F0D7
:1018400085FBF0E7004C00400044004000380240B7
:10185000000802409005002070600240000C024029
:10186000B0040020886002407047FEE7FEE7FEE714
:10187000FEE770477047704708B501F06BFE08BD82
:1018800008B5024801F0CEFC08BD00BF900500205D
:1018900008B5024801F0C6FC08BD00BFB004002036
:1018A00008B5024800F017F908BD00BF3004002059
:1018B00008B5024800F00FF908BD00BF3004002051
:1018C00008B5024800F007F908BD00BF3004002049
:1018D00008B5024800F0FFF808BD00BF3004002042
:1018E00008B5024800F0F7F808BD00BF70040020FA
:1018F00008B5024800F0EFF808BD00BFF003002073
:1019000008B5024800F0E7F808BD00BFB0030020AA
:1019100008B5024800F0C8FE08BD00BF5005002011
:1019200008B5024800F0D7F808BD00BF70030020DA
:1019300008B5024800F0B8FE08BD00BF1005002041
:1019400000B583B0002100910C4B5A6C42F48042E8
:101950005A645A6C02F480420092009A01911A6C07
:1019600042F080521A641B6C03F080530193019B78
:10197000072001F045FD03B05DF804FB003802408C
:1019800030B4036A23F001030362056A4268846984
:1019900024F073040B681C4325F002058B682B436D
:1019A000104DA84203D005F58065A84205D123F06B
:1019B0000803CD682B4323F004030A4DA84203D04B
:1019C00005F58065A84205D122F440724D691543A2
:1019D0008A692A43426084614A684263036230BC78
:1019E000704700BF0000014030B4036A23F48073E5
:1019F0000362036A4268C46924F073040D682C43CF
:101A000023F400738D6843EA0523124DA84203D0E6
:101A100005F58065A84206D123F40063CD6843EA4A
:101A2000052323F480630B4DA84203D005F58065A0
:101A3000A84207D122F440524D6942EA05128D694D
:101A400042EA05124260C4614A68C263036230BC64
:101A5000704700BF0000014030B4036A23F4805394
:101A60000362036A4468C26922F4E6420D6842EAEE
:101A7000052223F400538D6843EA0533094DA8423B
:101A800003D005F58065A84204D124F480444D6953
:101A900044EA85144460C2614A680264036230BC4F
:101AA000704700BF00000140022380F83D3002680B
:101AB000936803F00703062B03D0136843F0010378
:101AC0001360012380F83D30002070477047704755
:101AD00070477047704710B5044603681A6912F0E2
:101AE000020F11D0DA6812F0020F0DD06FF002026F
:101AF0001A610123037703689B6913F0030F70D009
:101B0000FFF7E6FF0023237723681A6912F0040F1A
:101B100012D0DA6812F0040F0ED06FF004021A61CE
:101B20000223237723689B6913F4407F5FD020460C
:101B3000FFF7CEFF0023237723681A6912F0080FFE
:101B400012D0DA6812F0080F0ED06FF008021A6196
:101B5000042323772368DB6913F0030F4ED020465C
:101B6000FFF7B6FF0023237723681A6912F0100FDE
:101B700012D0DA6812F0100F0ED06FF010021A6156
:101B8000082323772368DB6913F4407F3DD0204688
:101B9000FFF79EFF0023237723681A6912F0010FD5
:101BA00003D0DA6812F0010F36D123681A6912F0F7
:101BB000800F03D0DA6812F0800F34D123681A69DD
:101BC00012F0400F03D0DA6812F0400F32D12368D0
:101BD0001A6912F0200F03D0DA6812F0200F30D10A
:101BE00010BDFFF774FF2046FFF773FF8AE720461A
:101BF000FFF76DFF2046FFF76CFF9BE72046FFF7DE
:101C000066FF2046FFF765FFACE72046FFF75FFF62
:101C10002046FFF75EFFBDE76FF001021A61204624
:101C2000FFF754FFC1E76FF080021A61204600F011
:101C300022FAC3E76FF040021A612046FFF74AFF1D
:101C4000C5E76FF020021A61204600F013FAC7E7DB
:101C50000368304A904212D0B0F1804F0FD0A2F505
:101C60007C4290420BD002F58062904207D002F590
:101C70008062904203D002F57842904203D123F073
:101C800070034A681343234A90422AD0B0F1804F30
:101C900027D0A2F57C42904223D002F58062904288
:101CA0001FD002F5806290421BD002F5784290422C
:101CB00017D002F57052904213D002F58062904224
:101CC0000FD002F5806290420BD0A2F5983290427C
:101CD00007D002F58062904203D002F58062904204
:101CE00003D123F44073CA68134323F080034A6985
:101CF000134303608B68C3620B688362054B984291
:101D000003D003F58063984201D10B69036301237B
:101D10004361704700000140B0B110B5044690F82F
:101D20003D3063B1022384F83D30214651F8040B65
:101D3000FFF78EFF012384F83D30002010BD80F8AE
:101D40003C30FFF7E1FBEDE701207047002849D068
:101D5000F8B50C46054690F83D30002B3DD00223E7
:101D600085F83D302A68936823F4804323F0070305
:101D70009360294651F8040BFFF76AFF29688A68C7
:101D80008E690F6A2068104326F4407626F0030619
:101D9000A268A36942EA0323334323F47C4323F07C
:101DA000FC03E668E26946EA02261E43226A130340
:101DB000226943EA0213334327F0AA076268646981
:101DC00042EA04123A43886029688B612B681A62E0
:101DD000012385F83D300020F8BD80F83C30FFF746
:101DE0007BFABCE70120704730B4036A23F010038C
:101DF0000362036A4468826922F4E6420D6842EA9B
:101E0000052223F020038D6843EA0513114DA842F3
:101E100003D005F58065A84206D123F08003CD6884
:101E200043EA051323F040030A4DA84203D005F509
:101E30008065A84207D124F440644D6944EA8504D2
:101E40008D6944EA8504446082614A688263036262
:101E500030BC70470000014038B590F83C30012B91
:101E600066D004460D46012380F83C30022380F8FA
:101E70003D300C2A1AD8DFE802F007191919201989
:101E800019193419191947000068FFF779FD2268FC
:101E9000936943F0080393612268936923F0040374
:101EA00093612268936929690B439361012384F844
:101EB0003D30002084F83C0038BD0068FFF794FFF7
:101EC0002268936943F4006393612268936923F461
:101ED0008063936122689369296943EA01239361CE
:101EE000E4E70068FFF780FD2268D36943F0080348
:101EF000D3612268D36923F00403D3612268D369D4
:101F000029690B43D361D1E70068FFF7A5FD22687B
:101F1000D36943F40063D3612268D36923F48063F7
:101F2000D3612268D369296943EA0123D361BDE7FC
:101F30000220C1E710B401F01F01012303FA01F4EC
:101F4000036A23EA04030362036A02FA01F10B4302
:101F500003625DF8044B704710B504460122006827
:101F6000FFF7E8FF23680B4A934203D002F5806233
:101F7000934203D15A6C42F400425A642268936837
:101F800003F00703062B03D0136843F0010313602B
:101F9000002010BD0000014010B5044661B10429C5
:101FA00016D0012200210068FFF7C4FF012204219E
:101FB0002068FFF7BFFF04E0012200210068FFF75F
:101FC000B9FF2268136843F001031360002010BDBD
:101FD000012204210068FFF7ADFFF2E790F83C30E2
:101FE000012B1CD070B4012680F83C60022380F8DD
:101FF0003D3002685568936825F070050C682C43E5
:1020000023F080054B682B4354600268936080F88E
:102010003D60002380F83C30184670BC70470220B9
:10202000704790F83C30012B22D0012380F83C30DF
:10203000CB6823F440738A68134323F480634A68AF
:10204000134323F400630A68134323F480530A699B
:10205000134323F400534A69134323F48043CA69AA
:10206000134302685364002380F83C3018467047DD
:1020700002207047704770470268D36823F0C0039E
:10208000D360202380F8393070470268D36823F486
:102090009073D3600268536923F0010353612023D6
:1020A00080F83A30704790F83930DBB2212B01D0FC
:1020B000022070478368B3F5805F17D0036A5A1C0B
:1020C00002621A7803685A60C38C9BB2013B9BB2D0
:1020D000C3844BB90268D36823F08003D3600268DD
:1020E000D36843F04003D36000207047036A1B8825
:1020F0000268C3F30803536003691BB9036A023320
:102100000362E1E7036A01330362DDE72DE9F84387
:1021100004460268136923F44053C1680B431361FA
:1021200083680269134342691343C2691A43016811
:10213000CB6823F4164323F00C031343CB600268EF
:10214000536923F4407381690B435361C369B3F549
:10215000004F60D00368B84A934200F0148102F542
:102160008062934200F00F8100F01CFE00EB8000C3
:1021700000EB80006568AD00B0FBF5F5AF4EA6FB47
:1021800005356D092F0100F00DFE00EB800505EB14
:10219000850563689B00B5FBF3F900F003FE00EBD7
:1021A000800000EB80006568AD00B0FBF5F5A6FB94
:1021B00005356D094FF0640808FB15952D01323582
:1021C000A6FB05356D0905F0F0053D4400F0EAFD7C
:1021D00000EB800000EB80006768BF00B0FBF7F702
:1021E00000F0E0FD00EB800000EB800063689B00E6
:1021F000B0FBF3F0A6FB0030400908FB10784FEA73
:10220000081808F13208A6FB0836C6F343162368FF
:102210002E449E600DE10368874A93425BD002F52D
:102220008062934257D000F0BDFD00EB800000EBD0
:10223000800065686D00B0FBF5F5804EA6FB0535A6
:102240006D092F0100F0AEFD00EB800000EB800077
:1022500065686D00B0FBF5F900F0A4FD00EB8000AF
:1022600000EB800065686D00B0FBF5F5A6FB053559
:102270006D094FF0640808FB1595ED003235A6FB9B
:1022800005356D096D0005F4F8753D4400F08AFDD3
:1022900000EB800000EB800067687F00B0FBF7F781
:1022A00000F080FD00EB800000EB800063685B00C5
:1022B000B0FBF3F3A6FB03235B0908FB13784FEA9B
:1022C000C80808F13208A6FB0836C6F34216236890
:1022D0002E449E60ADE000F075FD00EB800000EB49
:1022E000800065686D00B0FBF5F5544EA6FB053522
:1022F0006D092F0100F066FD00EB800000EB80000F
:1023000065686D00B0FBF5F900F05CFD00EB800046
:1023100000EB800065686D00B0FBF5F5A6FB0535A8
:102320006D094FF0640808FB1595ED003235A6FBEA
:1023300005356D096D0005F4F8753D4400F042FD6A
:1023400000EB800000EB800067687F00B0FBF7F7D0
:1023500000F038FD00EB800000EB800063685B005C
:10236000B0FBF3F3A6FB03235B0908FB13784FEAEA
:10237000C80808F13208A6FB0836C6F342162368DF
:102380002E449E6055E000F01DFD00EB800000EB48
:1023900080006568AD00B0FBF5F5284EA6FB05355D
:1023A0006D092F0100F00EFD00EB800505EB8505A2
:1023B00063689B00B5FBF3F900F004FD00EB8000BF
:1023C00000EB80006568AD00B0FBF5F5A6FB0535B8
:1023D0006D094FF0640808FB15952D013235A6FBF9
:1023E00005356D0905F0F0053D4400F0EBFC00EB10
:1023F000800000EB80006768BF00B0FBF7F700F0DB
:10240000E1FC00EB800000EB800063689B00B0FB08
:10241000F3F0A6FB0030400908FB10784FEA0818DB
:1024200008F13208A6FB0836C6F3431623682E448B
:102430009E60BDE8F88300BF001001401F85EB518E
:1024400058B310B5044690F839300BB3242384F800
:1024500039302268D36823F40053D3602046FFF755
:1024600055FE2268136923F490431361226853696F
:1024700023F02A0353612268D36843F40053D360E6
:102480000020E063202384F8393084F83A3010BD0E
:1024900080F83830FFF734F9D8E7012070470000A2
:1024A00030B583B0044690F83A00C0B220283CD141
:1024B00000293DD0002A3DD094F83830012B3BD084
:1024C000012384F83830A162A2850025E563222328
:1024D00084F83A30636B1948D863636B1848186402
:1024E000636B1848D864636B1D65206813460A4601
:1024F000011D606B00F048FE019523681A68019287
:102500005A680192019A84F83850DA6842F480726D
:10251000DA602268536943F001035361226853690A
:1025200043F040035361284600E0022003B030BD71
:102530000120FBE70120F9E70220F7E76525000805
:10254000432600084F260008704708B50168CA688E
:1025500022F04002CA60202280F83920FFF7F4FF01
:10256000002008BD08B50346806B1B681B6813F488
:10257000807F13D10023C3850268D36823F480735E
:10258000D3600268536923F0010353610268536901
:1025900023F040035361202380F83A3001F020FDFE
:1025A00008BD08B590F83A30DBB2222B46D18368DB
:1025B000B3F5805F0FD003690BBB03685A68836A69
:1025C000591C81621A70C38D9BB2013B9BB2C385BB
:1025D000F3B1002008BD826A036943B903685B68F0
:1025E000C3F308031380836A02338362EBE7036853
:1025F0005B68DBB21380836A01338362E3E70368BD
:102600005B68826A511C816203F07F031370DAE712
:102610000268D36823F02003D3600268D36823F4F0
:102620008073D3600268536923F001035361202350
:1026300080F83A3001F0D4FC0020CBE70220C9E753
:10264000704708B5806BFFF7FBFF08BD704710B5FA
:10265000846B23685A6994F83930DBB2212B10D08F
:1026600023685A6902F0400294F83A30DBB2222B18
:1026700011D0E36B43F01003E3632046FFF7E6FF5E
:1026800010BD02F08002002AEAD00023E384204635
:10269000FFF7F2FCE4E7002AEBD00023E3852046B5
:1026A000FFF7F3FCE5E7000010B504460268136885
:1026B000D168526913F00F0005D113F0200F02D03A
:1026C00011F0200F13D128B112F0010213D111F42F
:1026D000907F10D113F0800F02D011F0800F69D1DC
:1026E00013F0400F02D011F0400F67D110BD20460B
:1026F000FFF757FFFAE713F0010F06D011F4807FC0
:1027000003D0E06B40F00100E06313F0040F04D04D
:102710001AB1E06B40F00200E06313F0020F04D046
:102720001AB1E06B40F00400E06313F0080F04D02E
:102730001AB1E26B42F00802E263E26B002AD5D0E4
:1027400013F0200F02D011F0200F21D123685B6914
:1027500003F04003E26B12F0080F00D123B32046D0
:10276000FFF793FC23685A6912F0400F18D05A699A
:1027700022F040025A61636B73B1124A1A65606BB2
:1027800000F03CFD0028B1D0606B036D9847ADE7C9
:102790002046FFF706FFD9E72046FFF757FFA5E7DA
:1027A0002046FFF753FFA1E72046FFF74FFF002326
:1027B000E3639BE72046FFF776FC97E72046FFF7A9
:1027C000C4FE93E7C927000808B5806B0023C385C2
:1027D000C384FFF73BFF08BD002800F0B98170B546
:1027E00082B00446036813F0010F3BD0A64B9B68F0
:1027F00003F00C03042B2CD0A34B9B6803F00C03B9
:10280000082B21D06368B3F5803F4FD0B3F5A02FDC
:1028100052D09D4B1A6822F480321A601A6822F452
:1028200080221A606368002B50D000F09FFE05469E
:10283000954B1B6813F4003F14D100F097FE401B2A
:102840006428F5D903208AE18F4B5B6813F4800F6D
:10285000D8D08D4B1B6813F4003F03D06368002B66
:1028600000F07881236813F0020F54D0864B9B68E8
:1028700013F00C0F3ED0844B9B6803F00C03082B25
:1028800033D0E368002B67D0804B01221A6000F040
:102890006DFE05467C4B1B6813F0020F53D100F010
:1028A00065FE401B0228F5D9032058E1764A1368DB
:1028B00043F480331360B5E7734B1A6842F4802207
:1028C0001A601A6842F480321A60ABE700F04EFEDC
:1028D00005466D4B1B6813F4003FC3D000F046FE65
:1028E000401B6428F5D9032039E1674B5B6813F47A
:1028F000800FC6D1644B1B6813F0020F03D0E3684E
:10290000012B40F02981604A136823F0F803216904
:1029100043EAC1031360236813F0080F40D06369D2
:1029200063B35B4B01221A6000F020FE0546564B54
:102930005B6F13F0020F33D100F018FE401B02282A
:10294000F5D903200BE1504A136823F0F8032169FD
:1029500043EAC1031360DEE74C4B00221A6000F02B
:1029600005FE0546484B1B6813F0020FD3D000F05C
:10297000FDFD401B0228F5D90320F0E0444B002266
:102980001A6000F0F3FD05463F4B5B6F13F0020F3A
:1029900006D000F0EBFD401B0228F5D90320DEE055
:1029A000236813F0040F78D0374B1B6C13F0805F53
:1029B0000DD100230193344B1A6C42F080521A64FB
:1029C0001B6C03F080530193019B012500E000255F
:1029D000304B1B6813F4807F21D0A368012B32D0C9
:1029E000052B36D0284B1A6F22F001021A671A6F96
:1029F00022F004021A67A368002B34D000F0B6FD61
:102A00000646214B1B6F13F0020F45D100F0AEFDBF
:102A1000801B41F288339842F3D903209FE01D4A7E
:102A2000136843F48073136000F0A0FD0646194B51
:102A30001B6813F4807FD0D100F098FD801B022822
:102A4000F5D903208BE0104A136F43F0010313679D
:102A5000D1E70D4B1A6F42F004021A671A6F42F069
:102A600001021A67C7E700F081FD0646064B1B6F9F
:102A700013F0020F10D000F079FD801B41F2883373
:102A80009842F3D903206AE0003802400000474230
:102A9000800E474200700040E5B9A369002B5DD06D
:102AA000314A926802F00C02082A5AD0022B17D041
:102AB0002E4B00221A6000F059FD04462A4B1B6879
:102AC00013F0007F42D000F051FD001B0228F5D921
:102AD000032044E0244A136C23F080531364DCE7A2
:102AE000224B00221A6000F041FD05461E4B1B6878
:102AF00013F0007F06D000F039FD401B0228F5D905
:102B000003202CE0E369226A1343626A43EA8213DA
:102B1000A26A5208013A43EA0243E26A43EA0263C4
:102B2000114A5360114B01221A6000F01FFD044648
:102B30000D4B1B6813F0007F06D100F017FD001B42
:102B40000228F5D903200AE0002008E0002006E072
:102B500001207047012002E0012000E0002002B0C7
:102B600070BD0120FBE700BF003802406000474213
:102B7000F8B52F4B9B6803F00C03042B53D0082BA4
:102B800053D12B4B5A6802F03F025B6813F4800F5D
:102B900028D0274B5B68C3F3881358010021C01A63
:102BA00061F100018E0146EA906687013C1A66EBEE
:102BB0000105E90041EA5471E000C01841F100014B
:102BC0004B0243EAD0534402204619460023FEF745
:102BD0005BF8174B5B68C3F3014301335B00B0FB49
:102BE000F3F023E0124B5B68C3F388135C0100250C
:102BF000E41A65F10005AE0146EA9466A701381BA8
:102C000066EB0501CC0044EA5074C500E81844F1B5
:102C100000018B0243EA90538402204619460023A8
:102C2000FEF732F8D5E7034800E00348F8BD00BFDF
:102C30000038024000127A000024F400002800F05E
:102C40009A8070B50D4604464F4B1B6803F00F0386
:102C50008B4208D2CBB24C4A1370136803F00F03B7
:102C60008B4240F08A80236813F0020F17D013F0D4
:102C7000040F04D0454A936843F4E05393602368FB
:102C800013F0080F04D0414A936843F46043936003
:102C90003E4A936823F0F003A1680B4393602368D6
:102CA00013F0010F32D06368012B21D09A1E012A44
:102CB00025D9364A126812F0020F60D033498A686B
:102CC00022F0030213438B6000F050FC06462F4BAA
:102CD0009B6803F00C036268B3EB820F16D000F020
:102CE00045FC801B41F288339842F0D9032041E033
:102CF000264A126812F4003FE0D101203AE0234A4C
:102D0000126812F0007FD9D1012033E01E4B1B68FE
:102D100003F00F03AB4207D9EAB21B4B1A701B68D2
:102D200003F00F03AB422CD1236813F0040F06D03D
:102D3000164A936823F4E053E1680B4393602368D9
:102D400013F0080F07D0114A936823F460432169F8
:102D500043EAC1039360FFF70BFF0C4B9B68C3F37F
:102D600003130B4AD35CD8400A4B1860002000F0D4
:102D7000B1FB002070BD012070470120FAE701205F
:102D8000F8E70120F6E700BF003C024000380240AF
:102D9000A06D00080C000020014B1868704700BFB0
:102DA0000C00002008B5FFF7F7FF044B9B68C3F346
:102DB0008223034AD35CD84008BD00BF00380240DC
:102DC000B06D000808B5FFF7E7FF044B9B68C3F33D
:102DD0004233034AD35CD84008BD00BF00380240EC
:102DE000B06D000800230F2B00F2D980F0B482B040
:102DF00039E0072200E00022B2403A430234684E34
:102E000046F82420674A1468EA4324EA05064F6816
:102E100017F4803F01D045EA0406624C26606468DE
:102E200002EA04064F6817F4003F01D045EA0406A1
:102E30005C4C6660A46802EA04064F6817F4801FC1
:102E400001D045EA0406574CA660E46822404E686B
:102E500016F4001F01D045EA0402524CE26001332F
:102E60000F2B00F2998001229A400C6804EA0205B7
:102E700032EA0404F3D14C68022C01D0122C10D198
:102E8000DE08083650F826C003F00704A7000F2418
:102E9000BC402CEA040C0C69BC4044EA0C0440F829
:102EA0002640D0F800C05E000324B440E7432CEA7B
:102EB000040C4C6804F00304B44044EA0C040460BD
:102EC0004C6804F1FF3CBCF1010F03D9112C01D077
:102ED000122C10D1846807EA040CCC68B44044EA90
:102EE0000C048460446824EA02024C68C4F30014B1
:102EF0009C4014434460C26817408A68B2403A4319
:102F0000C2604A6812F0805FA9D000220192264A6E
:102F1000546C44F480445464526C02F48042019234
:102F2000019A9C08A61C1E4A52F8267003F0030260
:102F300096000F22B24027EA02071C4A90423FF453
:102F40005AAF02F5806290421AD002F58062904238
:102F500018D002F58062904216D002F5806290424D
:102F600014D002F58062904212D002F58062904245
:102F700010D002F5806290423FF43BAF08223BE75D
:102F8000012239E7022237E7032235E7042233E73B
:102F9000052231E706222FE702B0F0BC70477047E8
:102FA00000380140003C014000380240000002406F
:102FB0000AB18161704709048161704730B40568C6
:102FC0002C6824F480242C60046863608368402BA0
:102FD00005D0036899600368DA6030BC7047036805
:102FE0009A600368D960F8E710B40368D9B2103961
:102FF0000C4AA2FB014212090B4CA25CC2655F297C
:1030000009D923F47F7323F0030304338365806DB0
:103010005DF8044B704723F47F7323F0030383654B
:10302000F5E700BFABAAAAAA986D0008836A826977
:1030300092B9012B0AD0022B02D00BB100207047AD
:10304000C36A13F0807F28D100207047C36AB3F1B0
:10305000C07F24D000207047B2F5005F09D0022B5A
:1030600025D9032B25D1C36A13F0807F23D10020FB
:103070007047032B03D8DFE803F01404140A002080
:103080007047C36A13F0807F0DD100207047C36A78
:10309000B3F1C07F09D000207047012070470120A4
:1030A00070470120704701207047012070470120C0
:1030B00070470020704701207047000070B504463B
:1030C00000F054FA002C5BD00546002384F834301D
:1030D000022384F835302268136823F0010313605B
:1030E00023681A6812F0010F0AD000F03FFA431B60
:1030F000052BF5D920236365032084F8350070BDC6
:103100001A68204810406168A2680A43E1680A43CF
:1031100021690A4361690A43A1690A43E1690A43D3
:10312000216A0A430243616A04291ED01A60266894
:10313000756925F00705636A1D43042B07D1A36A4F
:103140001D43E36A1BB12046FFF770FF90B975611C
:103150002046FFF749FFE26D3F2393408360002044
:103160006065012384F83530C9E7E16A206B0143CB
:103170000A43DBE740236365012084F83500BEE79E
:103180000120BCE73F8010F038B50446856D90F80B
:103190003400012830D0012084F8340094F8350040
:1031A000C0B2012804D0002384F83430022038BD96
:1031B000022084F83500002060652046FFF7FEFEFF
:1031C000E26D3F239340AB602268136843F016031F
:1031D00013602268536943F080035361236C23B169
:1031E0002268136843F0080313602268136843F0F1
:1031F000010313600020DAE70220D8E790F83530A9
:10320000DBB2022B03D080234365012070470523E6
:1032100080F835300268136823F001031360002042
:1032200070470000F0B583B0044600230193724B51
:103230001D68724BA3FB0535AD0A876D3E68C26DF4
:1032400008239340334210D003681A6812F0040F29
:103250000BD01A6822F004021A60C26D0823934052
:10326000BB60436D43F001034365E26D012393406E
:10327000334209D02268526912F0800F04D0BB603B
:10328000636D43F002036365E26D042393403342B0
:1032900009D02268126812F0020F04D0BB60636D7F
:1032A00043F004036365E26D10239340334224D05E
:1032B0002268126812F0080F1FD0BB6023681A68DA
:1032C00012F4802F0DD01B6813F4002F04D1236C4F
:1032D0009BB12046984710E0A36C73B120469847F5
:1032E0000BE01A6812F4807F03D11A6822F00802FA
:1032F0001A60236C0BB120469847E26D202393405F
:10330000334255D02268126812F0100F50D0BB60C3
:1033100094F83530DBB2052B0ED023681A6812F40E
:10332000802F33D01B6813F4002F2AD1636C002B3D
:103330003ED0204698473BE02268136823F01603EE
:1033400013602268536923F080035361236CA3B197
:103350002268136823F008031360E26D3F23934053
:10336000BB60002384F83430012384F83530236DAA
:10337000002B3FD0204698473CE0A36C002BE7D1C0
:10338000EBE7E36BA3B12046984711E01A6812F40B
:10339000807F09D11A6822F010021A60002384F895
:1033A0003430012384F83530E36B0BB12046984765
:1033B000636DFBB1636D13F0010F17D0052384F823
:1033C00035302268136823F001031360019B013339
:1033D0000193AB4204D823681B6813F0010FF5D1A9
:1033E000002384F83430012384F83530E36C0BB1CA
:1033F0002046984703B0F0BD0C000020B5814E1B5D
:10340000074AD36823F4E0631B041B0C000200F49A
:10341000E060034343F0BF6343F40033D36070477D
:1034200000ED00E030B4174BDB68C3F30223C3F1B7
:103430000704042C28BF04241D1D062D18D9033BA6
:103440004FF0FF3505FA04F421EA0401994005FA2A
:1034500003F322EA0303194300280BDB0901C9B275
:1034600000F1604000F5614080F8001330BC704707
:103470000023E5E700F00F000901C9B2024B19541F
:10348000F4E700BF00ED00E014ED00E0002807DBEA
:1034900000F01F02400901239340024A42F8203005
:1034A000704700BF00E100E00138B0F1807F0AD230
:1034B000064B5860064AF02182F8231000209860DD
:1034C00007221A6070470120704700BF10E000E03B
:1034D00000ED00E010B504460E4B18784FF47A73F7
:1034E000B3FBF0F30C4A1068B0FBF3F0FFF7DCFF1E
:1034F00068B90F2C01D901200AE0002221464FF0C3
:10350000FF30FFF78FFF054B1C60002000E001201B
:1035100010BD00BF040000200C00002008000020A7
:1035200008B50B4B1A6842F400721A601A6842F42C
:1035300080621A601A6842F480721A600320FFF7F2
:103540005FFF0020FFF7C6FFFEF7FAF9002008BD75
:10355000003C0240034A1168034B1B780B44136084
:10356000704700BFF005002004000020014B1868E0
:10357000704700BFF00500200F49D1F8883043F4B0
:103580007003C1F888300D4B1A6842F001021A60CE
:10359000002098601A6822F0847222F480321A6047
:1035A000074A5A601A6822F480221A60D8604FF0E5
:1035B00000638B60704700BF00ED00E00038024000
:1035C0001030002410B582B0002401940D4B1A6B0A
:1035D00042F400121A631B6B03F400130193019B66
:1035E000224621460F20FFF71DFF0F20FFF74EFF59
:1035F000224621461020FFF715FF1020FFF746FF57
:1036000002B010BD00380240DFF834D0002103E0E2
:103610000C4B5B58435004310B480C4B42189A42F8
:10362000F6D30B4A02E0002342F8043B094B9A42CE
:10363000F9D3FFF7A1FF00F043FE00F063FC7047F1
:1036400000000220F471000800000020E8010020C2
:10365000E801002004060020FEE70000012800D059
:10366000704708B54FF6FF73994200D008BDFFF7C9
:103670007DFF014B1860F9E71002002008B5012218
:103680004FF400510848FFF793FCFFF76FFF074B1B
:103690001B68C01A092800D808BDFFF767FF034B55
:1036A000186000F0CFFCF7E7000C02401002002089
:1036B00070B52DED028B90B000240C940D940E94F7
:1036C0000F946D46254E0FCE0FC50FCE0FC596E851
:1036D0000F0085E80F0021461AE0214B03EB82031F
:1036E000D3ED007A01EB4103134410A800EB8303F0
:1036F00013ED107A27EE877A00EB810353ED047AFD
:1037000077EE877A43ED047A0132022AE5DD013152
:10371000032907DC002210AB03EB810343F8102CD4
:103720000022F2E7002413E010AB03EB840313ED57
:10373000048A204600F080FBF0EE400A04EB4400CF
:10374000B0EE480A074B03EBC00000F0ADF90134BE
:10375000032CE9DD10B0BDEC028B70BD686D000874
:10376000040200209402002008B5074B00221A60D2
:103770000649D1ED007AF1EE677AC3ED017A9A60DD
:10378000FFF796FF08BD00BF0402002010000020D4
:1037900008B5054B00221A600449096859609A600F
:1037A000FFF786FF08BD00BF0402002010000020C4
:1037B00008B5074BD3ED007AF1EE677A054BC3ED00
:1037C000007A00225A609A60FFF772FF08BD00BFBE
:1037D000100000200402002008B5054B054A1268BD
:1037E0001A6000225A609A60FFF762FF08BD00BFAE
:1037F000040200201000002008B5094BD3ED007A28
:10380000B6EE007A67EE876A064BC3ED006A67EE94
:10381000C77AC3ED017A00229A60FFF749FF08BD1D
:10382000100000200402002008B5084BD3ED007AF8
:10383000B6EE007A67EEC77A054BC3ED007AC3EDAA
:10384000017A00229A60FFF733FF08BD10000020C4
:103850000402002008B5084BD3ED007AB6EE007ADA
:1038600067EE877A054BC3ED007AC3ED017A00223B
:103870009A60FFF71DFF08BD100000200402002021
:1038800008B5094BD3ED007AB6EE007A67EEC76A49
:10389000064BC3ED006A67EE877AC3ED017A00221A
:1038A0009A60FFF705FF08BD100000200402002009
:1038B00008B5044B00221A605A60034A9A60FFF769
:1038C000F7FE08BD040200200000104108B5044BBB
:1038D00000221A605A60034A9A60FFF7E9FE08BDA9
:1038E00004020020000010C108B5044B00221A6039
:1038F0005A609A60FFF7DCFE08BD00BF040200209A
:10390000014B83ED000A70471000002008B54FF608
:10391000FF710120FFF7A2FE08BD0000034B93FBDF
:10392000F0F080B2013880B2704700BF00BD0105E1
:1039300070B506460D4614464FF4FA50FFF7EEFFF9
:1039400004FB00F20D4B83FB02131344D217C2EBAE
:10395000E3321DB9336892B25A6370BD042D05D0AD
:10396000082D07D0336892B21A64F6E7336892B232
:103970009A63F2E7336892B2DA63EEE7018000807F
:1039800008B50A46C1698069FFF7D2FF08BD00008B
:10399000F8B5044610EE105A0068FCF7D5FD024653
:1039A0000B460BA1D1E90001FCF750FF06460F467C
:1039B0002846FCF7C9FD02460B4630463946FCF75F
:1039C0001BFEFDF7F1F881B22046FFF7D9FFF8BDE5
:1039D00000000000E0FFEF4010B5044661B101298E
:1039E00015D0002281898068FFF7E2FA0022A18ABF
:1039F0002069FFF7DDFA10BD012281898068FFF799
:103A0000D7FA0022A18A2069FFF7D2FAF3E7002251
:103A100081898068FFF7CCFA0122A18A2069FFF72B
:103A2000C7FAE8E710B52DED028B0446006890ED6B
:103A3000008AB4EEC08AF1EE10FA08D4B1EE488ADA
:103A4000B4EEC08AF1EE10FA01DCB0EE408AD0ED9F
:103A5000017AB1EE677AB4EEC87AF1EE10FA0FDCB3
:103A6000F4EEC87AF1EE10FA13D50121FFF7B4FF96
:103A7000B0EEC80A2068FFF78BFFBDEC028B10BDCB
:103A80000021FFF7A9FFB0EEC80A2068FFF780FF0A
:103A9000F3E70221FFF7A0FF9FED020A2068FFF77E
:103AA00077FFEAE70000000010B50446043000F09C
:103AB000A9FB2046FFF7B6FF10BD0000034B00E056
:103AC000183B034A9342FBD1704700BFF402002029
:103AD00094020020F8B5314C3148A061314FA76005
:103AE0000123A381304A22612026A6820025E561B8
:103AF0002E4921604FF07E536360A063DFF8C0C0A1
:103B0000C4F828C04FF4806CA4F82CC00CF1804C91
:103B10000CF5003CC4F830C0A6860426E66321629A
:103B20006362A065A2640821A4F84C102765A4F87C
:103B30005460E1651E4921646364A0671D49A16664
:103B40004FF40051A4F86C1022670222A4F87420EC
:103B50000C22E267184A22666366FDF7A5FFE16959
:103B6000A069FEF7F9F9E16BA06BFEF7F5F9E16DDD
:103B7000A06DFEF7F1F9E16FA06FFEF7EDF92B46AE
:103B800008E0064A02EB431203EB4300C1000B4876
:103B900042500133032BF4DDF8BD00BF14020020B6
:103BA00070030020000C024000100240000082421E
:103BB0000000784200080240000074429402002095
:103BC00000000240012800D0704738B54FF6FF735F
:103BD000994200D038BD03240B4D0CE09FED0B0A39
:103BE000B0EE401AF0EE400A281D00F0EFFA002374
:103BF00045F8183B013C002CF0DA054A0549002045
:103C000000F04AFBE6E700BF94020020000000003D
:103C100000000020BD3A000838B52DED048B354C6E
:103C2000251DB7EE080A284600F0C7FADFED329AE4
:103C3000B0EE690A284600F0C3FA9FED309AB0EE64
:103C4000490A284600F0BFFADFED2D8A9FED2D8A44
:103C5000F0EE680AB0EE480A284600F0CEFA04F109
:103C60001C05B7EE080A284600F0A7FAB0EE690A6C
:103C7000284600F0A5FAB0EE490A284600F0A3FA5B
:103C8000F0EE680AB0EE480A284600F0B6FA04F1F1
:103C90003405B7EE080A284600F08FFA9FED1A0A9D
:103CA000284600F08DFAB0EE490A284600F08BFA5B
:103CB000F0EE680AB0EE480A284600F09EFA4C344E
:103CC0009FED120A204600F078FA9FED110A204677
:103CD00000F076FAB0EE490A204600F074FAF0EEF1
:103CE000680AB0EE480A204600F087FABDEC048B63
:103CF00038BD00BF940200200000204200000000F8
:103D0000000082C200008242000034429A99D93FEA
:103D10000000404208B5FFF77FFF00F03DF8FFF7D5
:103D2000D9FE024800F03CF908BD00BF580300204E
:103D300008B54FF6FF710120FFF744FF08BD0000F2
:103D4000034B00E00C3B034A9342FBD1704700BF9A
:103D500024030020F4020020012800D0704708B599
:103D60004FF6FF73994200D008BD0322074B05E0D0
:103D700000215960002119810C33013A002AF7DA39
:103D8000034A0449002000F087FAEDE7F40200201E
:103D900000000020413D000810B50C4C0C4820608C
:103DA0000C4BE3600C4BA3610C4B63623C21FEF7B0
:103DB000F3F83C21E068FEF7EFF83C21A069FEF73C
:103DC000EBF83C21606AFEF7E7F810BDF402002032
:103DD0003004002070040020F0030020B003002015
:103DE00070B50446066833685D6A28B2FCF79AFB32
:103DF0000FA3D3E90023FCF7FFFB00220A4BFCF7DB
:103E0000FBFB0022094BFCF721FDFCF7EDFE07EE62
:103E1000900AF1EE677AC4ED017A23891D44258169
:103E2000336800225A6270BD00408F400080C3405A
:103E30006F1283C0CA21194070B50446064D460072
:103E400000EB400005EB8000FFF7CAFF344405EBB0
:103E5000840595ED010A70BDF402002008B54FF607
:103E6000FF710120FFF778FF08BD000030B595B065
:103E70003022002108A800F047FA0024039404949B
:103E800005940694079401941C4B1A6C42F08052DE
:103E90001A641B6C03F080530193019B0294184B2E
:103EA0001A6842F480421A601B6803F4804302934C
:103EB000029B012308934FF48033099302250E954A
:103EC0004FF480030F93082310934FF4A8731193BA
:103ED00012950723139308A8FEF77EFC0F23039384
:103EE000049505944FF4A05306934FF48053079321
:103EF000052103A8FEF7A2FE15B030BD0038024030
:103F00000070004008B5FFF70BFBFFF7AFFFFDF7B0
:103F100063F8FFF757FBFDF711F9FDF743F9FDF7DC
:103F200073F9FDF7A5F9FDF73FFBFDF7B5FBFDF7CD
:103F3000CDFBFFF7EFFE01224FF480510248FFF75F
:103F400037F8FFF79BFBF6E7000C0240704770471D
:103F500070470000012800D070474FF6FF73994268
:103F6000FAD110B50848002343608360C360074C52
:103F70002246074900F090F90648074B03602246A5
:103F8000064900F089F910BD280300200000002038
:103F9000513F000858030020500500204F3F000803
:103FA00008B50068034B186001220349FEF778FA50
:103FB000002008BD28030020270300200B78037091
:103FC0004B7843708B788370CB78C3700B79037117
:103FD0004B7943718B798371CB79C3717047000042
:103FE00008B5124B1B681B685B68114B1B783BB90B
:103FF000104B1B78A52B0ED10D4B01221A700AE035
:104000000D4B1B88072B07D80A4A11780B4AD1544D
:104010000133094A138008BD0023054A1370064A7C
:10402000138006490648FFF7C9FFF4E7280300207C
:104030002603002027030020240300205003002033
:104040004803002008B5534B1B78002B41D0524B3E
:104050009B78002B4BD0504B9B78002B4CD14E4B78
:104060001B78402B4DD04C4B1B78202B50D04A4B0B
:104070001B78802B53D0484B1A78102A5AD0464BC5
:1040800093F90530002B07DD4349887991F9061033
:10409000002901DB002851D1002B04DD3E4991F9B4
:1040A000061000294DDB002B4EDB002B57DB002BCD
:1040B0005DDC002B5EDB384B93F90630002B5CDCBB
:1040C000002B5DDB012A5ED0022A5FD0FFF70CFCDB
:1040D0004FE0002204213148FEF76AFF012202214D
:1040E0002F48FEF765FF2B4B01221A70AFE7B3EEA6
:1040F0000E0AFFF705FCAEE79FED2A0AFFF700FC6A
:10410000ADE701224FF400612748FEF751FFAAE70F
:1041100000224FF400612448FEF74AFFA7E701227E
:1041200004211E48FEF744FF002202211C48FEF72E
:104130003FFFA0E7174B00211970A0E7FFF774FBC2
:1041400017E0FFF759FB14E01349887991F906103D
:104150000029AADB0028A8D0FFF792FB09E00E494E
:1041600091F906100029A2DAFFF774FB01E0FFF7CE
:10417000FBFA08BDFFF70CFBFBE7FFF719FBF8E7BD
:10418000FFF72AFBF5E7FFF793FBF2E7FFF79EFB4C
:10419000EFE700BF140000204803002000000240A9
:1041A00000080240000048420004024008B54FF6F3
:1041B000FF710120FFF7CEFE08BD80ED000A7047B9
:1041C00080ED010A704780ED020A704710B52DEDB1
:1041D000028B0446F0EE608AB0EE418AFFF7EDFFF5
:1041E000B0EE680A2046FFF7EBFFB0EE480A204623
:1041F000FFF7E9FFBDEC028B10BD80ED030AC0EDB7
:10420000040A7047F8B52DED028B044630EE608A43
:104210001E4D2868FCF798F906460F46F2EE047A20
:1042200068EE277A17EE900AFCF78EF90022184BF9
:10423000FCF70CFB02460B4630463946FCF726F8E5
:10424000FCF7D2FC07EE900A286094ED007A27EE86
:10425000087AD4ED016A67EEA67A77EE277A0D4BDD
:1042600083ED008A94ED030AB4EEE70AF1EE10FA4A
:1042700008D494ED040AB4EEE70AF1EE10FA01DC7A
:10428000B0EE670ABDEC028BF8BD00BF5C030020F6
:1042900000408F40600300200B460146184600F0A6
:1042A00001B8000010B5054C13462CB10A46014672
:1042B0000220AFF3008010BD2046FCE700000000A4
:1042C00070B50D4D0D4C641BA4100026A64209D1FB
:1042D0000B4D0C4C02F03AFD641BA4100026A642C4
:1042E00005D170BD55F8043B98470136EEE755F807
:1042F000043B98470136F2E7DC710008DC710008E6
:10430000DC710008F071000802440346934200D1BA
:10431000704703F8011BF9E72DE9FF4755EC104BF7
:10432000002D0E4619462B46BBBF05F100431D4626
:1043300000232D230B700D9BDDF830A0914623F058
:104340002008BCBF22461446B8F1460F05D0B8F18C
:10435000450F00D10136022100E0032103AB019398
:1043600002AB009345EC104B5346324600F0CCFCB8
:10437000B8F1470F074602D119F0010F22D0B8F16A
:10438000460F07EB060910D13B78302B0AD10022EB
:10439000002320462946FCF797FB18B9C6F1010611
:1043A000CAF80060DAF80030994400220023204661
:1043B0002946FCF789FB08B1CDF80C903022039B0D
:1043C0004B4507D3039B0E9ADB1B3846136004B0A2
:1043D000BDE8F087591C03911A70F0E7F7B5034662
:1043E0000029B8BF494203F8022BB4BF2D222B226B
:1043F000092942702ADD0DF10704A4460A27A646C2
:104400000A4691FBF7F607FB16153035632A04F1CF
:10441000FF340EF8015C3146F1DC3031AEF10205BB
:1044200004F8011C441C294661450AD30DF1090218
:10443000A2EB0E02654588BF00221344181A03B090
:10444000F0BD11F8012B04F8012FEDE730233031D6
:104450008370C170031DF1E72DE9F04F2DED028B44
:104460008DB00C46DDF8608016461F46054601F00B
:1044700037FAD0F800A05046FBF7AAFE00230A93B3
:1044800023680593D8F8003094F818B0073323F068
:10449000070303F10802C8F80020D3E90023C4E9A8
:1044A0001223D4E9128929F000430793CDF818802C
:1044B00008EE100A9F4BDDE906014FF0FF32FCF7D2
:1044C00035FB88BBDDE906019A4B4FF0FF32FCF764
:1044D0000FFB48BB0022002340464946FCF7FEFA8A
:1044E00010B12D2384F84330934B9448BBF1470F10
:1044F00094BF9846804603232361059B23F0040262
:1045000022604FF00009009733460BAA2146284647
:1045100000F0D8F9013040F090804FF0FF300DB03E
:10452000BDEC028BBDE8F08F42464B464046494603
:10453000FCF7FCFA40B14B46002BBCBF2D2384F89E
:1045400043307F487F4BD1E763680BF0DF02069270
:104550005A1C3FD106236360059B616843F4806267
:10456000002303930AABCDE901B309AB49EC108BEF
:10457000009322600DF123032846FFF7CDFE069B32
:104580000999472B804608D1C81C02DB6368994211
:1045900041DDABF1020B5FFA8BFBBBF1650F20D85D
:1045A00001395A4604F150000991FFF717FF0A9AA2
:1045B0001318012A8146236102DC2268D20701D543
:1045C000013323619DF82330002B9CD02D2384F8E8
:1045D000433098E7069A472ABED1002BBCD101236D
:1045E000B9E7BBF1660F18D1002963680BDD2161C3
:1045F00013B92268D00702D501330B442361A165AA
:104600004FF00009DEE713B92268D20701D5023363
:10461000F4E70123F2E74FF0670B0A9B994205DBB1
:1046200023682161D807EAD54B1CE7E70029D4BFEE
:10463000C1F1020201221344E0E723685A0507D4BE
:104640002369424631462846B84701302CD164E7F9
:10465000BBF1650F40F2E080D4E912010022002393
:10466000FCF732FA002834D0374A01233146284675
:10467000B84701303FF451AFDDE909239A4202DB2C
:104680002368D80710D518EE103A5246314628460E
:10469000B84701303FF441AF4FF0000804F11A0968
:1046A0000A9B013B434509DC23689B0700F1058118
:1046B000E0680B9B9842B8BF184630E701234A4692
:1046C00031462846B84701303FF427AF08F10108CA
:1046D000E6E7099B002B39DC1B4A012331462846BB
:1046E000B84701303FF419AFDDE90923134302D184
:1046F0002368D907D8D518EE103A524631462846D5
:10470000B84701303FF409AF4FF0000904F11A0A2D
:10471000099B5B424B4501DC0A9B92E70123524611
:1047200031462846B84701303FF4F7AE09F1010998
:10473000EEE700BFFFFFEF7FBC6D0008C06D000813
:10474000C86D0008C46D0008CC6D00080A9AA36DFE
:104750009A42A8BF1A46002A914637DC4FF0000B58
:1047600029EAE97904F11A02A36D0593A3EB090381
:104770005B4533DCDDE909239A423BDB2368DA073A
:1047800038D40A9A059B0999D31AA2EB01099945D5
:10479000A8BF9946B9F1000F35DC4FF0000829EAAF
:1047A000E97904F11A0ADDE909239B1AA3EB09034D
:1047B00043457FF779AF0123524631462846B84733
:1047C00001303FF4AAAE08F10108ECE71346314688
:1047D00042462846B8470130C0D19EE60123314603
:1047E00028460592B84701303FF497AE059A0BF181
:1047F000010BB9E718EE103A524631462846B84741
:104800000130BED189E6059A4B46424431462846DE
:10481000B8470130C1D180E60A9A012A01DCDB07E2
:1048200038D50123424631462846B84701303FF487
:1048300074AE18EE103A524631462846B847013059
:104840003FF46BAED4E9120100220023FCF73CF9DF
:10485000D8B90A9B08F10102013B31462846B84706
:1048600001300ED159E60123524631462846B84759
:1048700001303FF452AE08F101080A9B013B434569
:10488000F1DC4B4604F15002DCE64FF0000804F185
:104890001A0AF2E701234246DFE701234A4631467E
:1048A0002846B84701303FF438AE08F10108E36804
:1048B0000B995B1A4345F0DCFAE64FF0000804F16F
:1048C0001909F4E72DE9F047164699468A680B69FD
:1048D000DDF820809342B8BF1346336091F843203F
:1048E00007460C460AB1013333602368990642BF7C
:1048F000336802333360256815F0060506D104F1EC
:10490000190AE36832689B1AAB4226DC94F843200C
:10491000131E226818BF012392062BD404F1430210
:1049200049463846C04701301ED02368E5683268E2
:1049300003F00603042B08BFAD1AA36822690CBF5D
:1049400025EAE57500259342C4BF9B1AED180026A1
:104950001A34B5421AD1002008E0012352464946D4
:104960003846C047013003D14FF0FF30BDE8F08733
:104970000135C6E7E1185A1C302081F84300224473
:1049800094F8451082F843100233C7E7012322460A
:1049900049463846C0470130E6D00136D9E7000025
:1049A0002DE9FF470C469146277E0C99782F8046CB
:1049B0009A4604F1430207D8622F0AD8002F00F06C
:1049C000D880582F00F0A38004F1420684F842708A
:1049D0003AE0A7F16303152BF6D801A050F823F0B5
:1049E000394A00084D4A0008C9490008C949000869
:1049F000C9490008C94900084D4A0008C9490008CA
:104A0000C9490008C9490008C9490008594B0008AC
:104A10007D4A00083B4B0008C9490008C949000805
:104A20007B4B0008C94900087D4A0008C9490008B5
:104A3000C9490008434B00080B681A1D1B680A602F
:104A400004F1420684F842300123A3E02568086897
:104A50002E0600F104030AD505680B60002D03DA69
:104A60002D236D4284F843305E480A2319E015F087
:104A7000400F05680B6018BF2DB2EFE70B68256883
:104A8000181D0860280601D51D6802E06906FBD5DF
:104A90001D8854486F2F0CBF08230A23002184F877
:104AA00043106668A660002EA2BF216821F00401B1
:104AB00021600DB9002E4DD01646B5FBF3F103FB76
:104AC0001157C75D06F8017D2F46BB420D46F4D94C
:104AD000082B0BD12368DF0708D523696168994249
:104AE000DEBF302306F8013C06F1FF36921B22613F
:104AF000CDF800A04B4603AA21464046FFF7E2FE50
:104B000001304CD14FF0FF3004B0BDE8F08735489C
:104B100084F8457023680E681F0656F8045B0E6023
:104B200014D5D90744BF43F0200323601DB923687F
:104B300023F0200323601023B0E7236843F0200311
:104B400023607823284884F84530E3E75E0648BFB1
:104B5000ADB2E6E71646BBE70B68266860691D1D27
:104B60000D6035061B6801D5186002E07106FBD5A3
:104B70001880002323611646BAE70B681A1D0A60E5
:104B80001E68626800213046FBF72AFB08B1801BD3
:104B9000606063682361002384F84330A8E72369D9
:104BA000324649464046D0470130ABD023689B0788
:104BB00013D4E068039B9842B8BF1846A4E70123CA
:104BC000324649464046D04701309BD00135E36824
:104BD00003995B1AAB42F2DCEBE7002504F11906FE
:104BE000F5E700BFCE6D0008DF6D00082DE9F74F37
:104BF00003690C69A3420746C0F28180013C01F1C0
:104C0000140800F1140505EB8403019358F82430CF
:104C100055F8242001339A424FEA840B08EB8409AB
:104C2000B2FBF3F631D34FF0000E4046AC46F246ED
:104C300050F8042B93B206FB03E34FEA134E9BB2EA
:104C4000AAEB0303120CDCF800A006FB02E213FA45
:104C50008AF34FEA124E1FFA82FADCF80020CAEB00
:104C6000124202EB23429BB243EA024381454CF8D5
:104C7000043B4FEA224ADBD255F80B302BB9019B9B
:104C8000043B9D421A462ED33C61384601F0C0F8E1
:104C9000002824DB013628464FF0000C58F8042B7E
:104CA000D0F800E093B2ACEB0303120C13FA8EF3CE
:104CB000C2EB1E4202EB23429BB243EA0243C145D0
:104CC00040F8043B4FEA224CE8D255F8242005EB8B
:104CD000840322B9043B9D421A460AD33C61304604
:104CE00003B0BDE8F08F1268043B002ACCD1013C30
:104CF000C7E71268043B002AF0D1013CEBE7002033
:104D0000EEE70000000000002DE9F04F2DED028BD2
:104D100057EC106B95B0456ADDF880800591CDE9C0
:104D20000267044609920F9375B9102000F0DCFD6C
:104D30000246606220B9B24BEA21B24801F032FA71
:104D4000C0E901550560C560636A196851B15A68C8
:104D50004A60012393408B60204600F01BFE636A8B
:104D600000221A603B1EB9BF23F0004303930023C7
:104D7000C8F80030DDF80C90A34BBCBF0122C8F886
:104D8000002033EA09031BD10F9A42F20F7313601C
:104D9000C9F31303334300F07A85219B63B99B4B1E
:104DA00024E09B4B00930833219A1360009815B0C0
:104DB000BDEC028BBDE8F08F944B00930333F3E717
:104DC0009DED027B002251EC170B00238DED0A7B39
:104DD000FBF77AFE804658B10F9A01231360219B9E
:104DE000002B00F051858B481860431E0093DDE7CF
:104DF0009DED0A0B12AA13A9204601F0ADF8C9F3E4
:104E00000A558346002D7CD00B9BCDF84080C3F320
:104E10001303DDE90A6743F07F5747F44017A5F213
:104E2000FF357D4B002230463946FBF72DFA6EA345
:104E3000D3E90023FBF7E0FB6DA3D3E90023FBF7E5
:104E400025FA064628460F46FBF76CFB6AA3D3E912
:104E50000023FBF7D1FB02460B4630463946FBF7F1
:104E600015FA06460F46FBF777FE0022824600231E
:104E700030463946FBF732FE48B15046FBF752FB4D
:104E800032463B46FBF720FE08B90AF1FF3ABAF179
:104E9000160F54D8614B03EBCA03D3E90023DDE9B5
:104EA0000A01FBF71BFE00284BD00AF1FF3A002352
:104EB0000E93129B5D1B6B1E049343BF0023C5F131
:104EC000010804934FF00008BAF1000F3BDB049B8C
:104ED000CDF834A05344049300230693059B092B7B
:104EE00069D8052BC4BF043B0593059BA3F10203BE
:104EF000CCBF00250125032B69D8DFE803F02C4E39
:104F00004C5ADDE912531D4405F23243202BC1BF38
:104F1000C3F1400305F2124009FA03F326FA00F048
:104F2000DABFC3F1200306FA03F01843FBF7EAFAED
:104F300001230646A1F1F877013D109371E70123A3
:104F4000B6E70E90B5E7CAF1000306930023A8EB7D
:104F50000A080D93C2E700230893099B002B39DC54
:104F60004FF00109CDF804904B46CDF82490606ACB
:104F700000224260042202F114069E4241682FD9A9
:104F8000204600F0C7FC009000284BD1244B02467D
:104F90004FF4D571D1E60123DEE700230893099B86
:104FA0000AEB030909F10103012B0193B8BF0123A7
:104FB000DDE70123F2E701250023059308954FF073
:104FC000FF390022CDF8049012230992CFE7012384
:104FD0000893F4E7DDF82490CDF804904B46C6E73B
:104FE000013141605200C6E761436F63A787D23F3A
:104FF000B3C8608B288AC63FFB799F501344D33FC8
:10500000FD6D0008146E00080000F07FF96D0008C7
:10501000F06D0008CD6D00080000F83F486F0008F3
:10502000906E0008636A009A1A60019B0E2B00F2D2
:10503000AD80002D00F0AA80BAF1000F36DDC34A22
:105040000AF00F0302EBC30393ED007B1AF4807F99
:105050004FEA2A17B0EE478AF0EE678A16D0BC4BAB
:10506000DDE90A01D3E90823FBF7F0FBCDE90201F2
:1050700007F00F070325B64E57B9DDE9020153ECDF
:10508000182BFBF7E3FBCDE9020129E00225F2E74B
:10509000F90708D551EC180BD6E90023FBF7ACFA59
:1050A00041EC180B01357F100836E5E700F0A680CB
:1050B000CAF10006A54BA64F06F00F0203EBC20390
:1050C000D3E90023DDE90A01FBF796FACDE90201F5
:1050D000361100230225002E40F08580002BD2D10E
:1050E0000E9B002B00F08C80DDE90267994B0022BB
:1050F00030463946FBF7F2FC002800F08180019B26
:10510000002B7DD0B9F1000F3CDD0AF1FF3307938E
:105110000022914B30463946FBF76EFACDE9020189
:105120000135CDF83090DDE902672846FBF7FAF942
:1051300032463B46FBF760FA884B0022FBF7A6F8A5
:10514000A1F15073CDE9020103930C9B002B5CD1BC
:10515000834B002230463946FBF796F8DDE90223FF
:1051600006460F46FBF7D8FC002840F09682DDE9A2
:105170000221304601F100433946FBF7AFFC00281D
:1051800040F08882DDE90A23CDE90223139B002B3E
:10519000C0F25881BAF10E0F00F354816B4B03EB50
:1051A000CA03D3E90089099B002B80F2E380019BAD
:1051B000002B00F3DF8040F06D82694B00224046F7
:1051C0004946FBF719FADDE90223FBF79BFC019E38
:1051D0003746002840F04382009D312305F8013B0B
:1051E0000AF1010A3FE2F20705D5D7E90023FBF7F0
:1051F00003FA01350123761008376CE702256FE7C3
:10520000019BCDF81CA00C938DE700990C980C9A8B
:105210004E4B9DED027B014402910899B0EE478A06
:10522000F0EE678A03EBC20353E90223002945D05D
:105230004C490020FBF70AFB53EC182BFBF724F832
:10524000009D41EC180B39463046FBF785FC0C906D
:10525000FBF768F902460B4630463946FBF714F86F
:105260000C9B303305F8013B53EC182B06460F46D8
:10527000FBF734FC002865D132463B463549002017
:10528000FBF702F853EC182BFBF728FC002840F042
:10529000B980029B9D423FF475AF2F4B51EC180B28
:1052A0000022FBF7A9F92C4B41EC180B00223046E9
:1052B0003946FBF7A1F906460F46C4E751EC170B38
:1052C000FBF79AF9029B009D0C9341EC180B3946B1
:1052D0003046FBF741FC1190FBF724F902460B46E0
:1052E00030463946FAF7D0FF119B303305F8013BC1
:1052F000029B9D4206460F464FF0000234D1194BE7
:1053000051EC180BFAF7C2FF02460B4630463946FD
:10531000FBF702FC002875D153EC182B1149002033
:10532000FAF7B2FF02460B4630463946FBF7D6FB8A
:1053300000283FF427AF0C9D6B1E0C9315F8013C21
:10534000302BF8D0DDF81CA04AE000BF486F000801
:10535000206F00080000F03F0000244000001C40C7
:10536000000014400000E03FAF4BFBF745F9064654
:105370000F46ACE7DDE90267009D42464B463046EA
:105380003946FBF763FAFBF7E7FB0290FBF7CAF835
:1053900042464B46FBF730F902460B46304639464B
:1053A000FAF772FF029E019F303605F8016B009EEE
:1053B000AE1BB74202460B4637D1FAF767FF4246AB
:1053C0004B4606460F46FBF7A7FBC8B942464B467D
:1053D00030463946FBF778FB10B1029BD9070FD452
:1053E0002046594600F0D6FA00232B700F9B0AF195
:1053F00001001860219B002B3FF4D8AC1D60D5E460
:10540000CDF81CA02B461D4613F8012D392A08D1D2
:10541000009A9A42F7D1079A0099013207923022F6
:105420000A701A7801321A708CE77F4B0022FBF762
:10543000E3F80022002306460F46FBF745FB002851
:105440009BD0CDE7089A002A00F0C480059A012A73
:1054500000F3A880109A002A00F0A08003F23343E2
:10546000069E4546049A01211A4420469844049217
:1054700000F04CFB0746002D0BDD049B002B08DDE4
:10548000AB42049AA8BF2B46A8EB0308ED1AD31A27
:105490000493069BFBB1089B002B00F09F80002E1D
:1054A00011DD39463246204600F0ECFB5A460146F3
:1054B0000746204600F040FB59460790204600F082
:1054C00069FA079B9B46069B9A1B04D059462046C7
:1054D00000F0D8FB83460121204600F017FB0D9B0E
:1054E000002B06467CDD1A460146204600F0CAFB2A
:1054F000059B012B064676DD00230693336906EBF8
:105500008303186900F0B2FAC0F12000049B18442C
:1055100010F01F0000F08680C0F12003042B7FDD17
:10552000C0F11C00049B0344804405440493B8F17B
:10553000000F05DD59464246204600F0FDFB83463C
:10554000049B002B05DD31461A46204600F0F4FB93
:1055500006460E9B002B69D03146584600F058FC99
:10556000002863DA002359460A22204600F034FA64
:10557000089B0AF1FF3A8346002B00F08F813946E1
:1055800000230A22204600F027FAB9F1000F07464F
:1055900000F38E80059B022B50DC89E0129BC3F147
:1055A00036035DE7019B5E1E069BB342BFBF069BB1
:1055B0000696F21A0D9BB6BF9B189E1B0D93019B7E
:1055C000B8BF0026002BB5BFA8EB0305019B002345
:1055D000454647E7069E089F45464CE7069A75E70D
:1055E000059B012B18DC029BB3B9039BC3F3130388
:1055F000A3B9039B23F000431B0D1B052BB1049B98
:105600000133049308F10108012306930D9B002B3D
:105610007FF474AF012079E70023F6E7029BF4E7FB
:1056200085D018461C307DE700002440019B002BEC
:1056300038DC059B022B35DDDDF80490B9F1000F55
:105640000DD131464B460522204600F0C5F90146F2
:105650000646584600F0DCFB00283FF7BDAD099B2D
:10566000009D6FEA030A4FF000083146204600F023
:1056700091F9002F3FF4B4AEB8F1000F05D0B84552
:1056800003D04146204600F085F93946204600F017
:1056900081F9A5E600263746E1E70C9EDDF81CA05F
:1056A000374699E5089BDDF80490002B00F0FD805B
:1056B000002D05DD39462A46204600F03DFB074611
:1056C000069B002B5CD07968204600F023F9054644
:1056D00028B9804B024640F2EA21FFF72EBB3A6917
:1056E0000232920007F10C010C3000F005F90122A2
:1056F0002946204600F020FB009B01330193009BCC
:105700004B440793029B03F00103B84606930746F8
:10571000019B3146013B58460293FFF767FA034667
:105720003033049041465846089300F071FB3A46E6
:1057300081463146204600F087FBC268089B05463B
:1057400002BB0146584600F063FB089B024629460F
:105750002046CDE9083200F01DF9059B099A019D0C
:1057600043EA0201069B0B43089B0DD1392B29D03C
:10577000B9F1000F01DD049B3133029A137074E715
:105780003846B9E70122E2E7B9F1000F06DB0599D7
:1057900041EA0909069959EA010120D1002AECDD04
:1057A000594601222046019300F0C6FA314683464D
:1057B00000F02EFB0028019B02DCDED1DA07DCD5ED
:1057C000392BD8D1029A392313702B461D46013B41
:1057D00015F8012C392A50D001321A7045E7002AF9
:1057E00003DD392BEED00133C7E7019A079902F8A0
:1057F000013C8A422AD0594600230A22204600F062
:10580000EBF8B84583464FF000034FF00A024146DB
:10581000204607D100F0E0F880460746019B01339F
:10582000019375E700F0D8F83946804600230A2234
:10583000204600F0D1F80746F0E7B9F1000F009AD2
:10584000CCBF4D46012515444FF0000859460122B2
:105850002046019300F070FA3146834600F0D8FAF2
:105860000028B2DC02D1019BDB07AED42B461D46DB
:1058700013F8012D302AFAD0F7E6009A9A42A5D102
:105880000AF1010A312379E7134BFFF7AFBA219BE5
:10589000002B7FF486AA114BFFF7A8BAB9F1000FCD
:1058A00003DC059B022B3FF7C9AE009D31465846ED
:1058B000FFF79CF900F1300305F8013B009AAA1AA2
:1058C0009145BADD594600230A22204600F084F8AB
:1058D0008346EBE7906E0008CC6D0008F06D000881
:1058E000004870476C010020024B0146186800F028
:1058F000EFBB00BF180000200A44914200F1FF33C3
:1059000000D1704710B511F8014B03F8014F9142D7
:10591000F9D110BD70B5466A04460D4676B910201F
:10592000FFF7E2FF0246606220B9184B1848662173
:1059300000F038FCC0E901660660C660666AF3687C
:1059400083B1636ADB6853F82500B8B9012101FA15
:1059500005F6721D9200204600F05AFB60B1C0E9C6
:1059600001560EE021220421204600F051FB636A1B
:10597000F060DB68002BE4D1002070BD026843F8C2
:1059800025200023C0E90333F7E700BFFD6D0008C1
:10599000A16E000870B5466A05460C4676B910201F
:1059A000FFF7A2FF0246686220B9094B09488A2125
:1059B00000F0F8FBC0E901660660C6603CB16B6AA6
:1059C0006268DB6853F82210216043F8224070BD02
:1059D000FD6D0008A16E00082DE9F0410E69074633
:1059E00098460C4601F1140000230568A9B202FB99
:1059F00001814FEA114C2D0C02FB05C589B2013320
:105A000001EB05419E4240F8041B4FEA1548ECDCCF
:105A1000B8F1000F22D0A368B34219DC61683846A0
:105A20000131FFF777FF054628B902460D4B0E48B6
:105A3000B52100F0B7FB2269023204F10C0192009B
:105A40000C30FFF759FF21463846FFF7A3FF2C46DD
:105A500004EB86030136C3F8148026612046BDE8B6
:105A6000F08100BF906E0008A16E0008030C1B04BB
:105A7000D3B90004102310F07F4F04BF0002083395
:105A800010F0704F04BF0001043310F0404F04BF0A
:105A900080000233002805DB10F0804F03F1010382
:105AA00008BF2023184670470023E4E7036813F07B
:105AB000070201460BD0DA0724D4980749BF5B08D8
:105AC0009B0801200B605CBF0B600220704798B2FE
:105AD000B0B91B0C102013F0FF0F04BF1B0A0830D5
